:100000000C9435010C9466010C9466010C94660105
:100010000C9466010C9466010C9466010C946601C4
:100020000C9466010C9466010C9466010C946601B4
:100030000C9466010C9466010C9466010C946601A4
:100040000C9466010C9466010C9466010C94660194
:100050000C9466010C9466010C9466010C945F0587
:100060000C9466010C9429050C94FF040C94660111
:100070000C9466010C9466010C9466010C94660164
:100080000C9466010C9466010C9466010C94660154
:100090000C9466010C9466010C9466010C94660144
:1000A0000C9466010C9466010C9466010C94660134
:1000B0000C9466010C9466010C9466010C94660124
:1000C0000C9466010C9466010C9466010C94660114
:1000D0000C9466010C9466010C9466010C94660104
:1000E0000C9466010C94D5020C94DF020C94CF02A0
:1000F0000C94E7020C94FB020C94C8020C94FE01D1
:100100000C94A9050C94C4020C94C0020C94F10246
:100110000C94D9020C9495010C944B020C94B801E8
:100120000C94ED020C94A4010C94F5020C94E302DF
:100130000C94CC020C94FA020C9468010C94C60145
:100140000C94BA020C94FF02000021002400270046
:100150002A002D00300033000101000004010701D6
:100160000A0100002200250028002B002E0031008B
:10017000340002010000050108010B01000020000D
:100180002300260029002C002F003200000100006F
:10019000030106010901050505050705080808080A
:1001A000020202020A0A080804040404010101010F
:1001B000010101010303030303030303040707070A
:1001C0000C0C0C0C0C0C0C0C0202020206060606AF
:1001D000060606060B0B0B0B0B0B0B0B010210207C
:1001E000200808102040102040800201020108046D
:1001F0000201010204081020408080402010080401
:100200000201800402018040201008040201080459
:10021000020101020408102040800102040810209D
:10022000408000000A0B02090C0D0E0807030401B0
:1002300000000000000000000000000000000000BE
:10024000000000000000000000000000000012118B
:10025000100000000000000000000000000000008E
:100260000000000000000000A90511241FBECFEF10
:10027000D1E2DEBFCDBF00E00CBF1AE0A0E0B2E0EB
:10028000E4E0F2E100E00BBF02C007900D92A6355A
:10029000B107D9F72BE0A6E5BAE001C01D92AA3557
:1002A000B207E1F711E0C5E3D1E000E006C0219715
:1002B0000109802FFE010E94F808C433D10780E0B5
:1002C0000807A9F70E9457060C9400090C94000037
:1002D000AF92BF92CF92DF92EF92FF920F931F9354
:1002E000CF93DF936C017B018B01040F151FEB0192
:1002F0005E01AE18BF08C017D10759F06991D60149
:10030000ED91FC910190F081E02DC6011995892BAA
:1003100079F7C501DF91CF911F910F91FF90EF9079
:10032000DF90CF90BF90AF900895FC01538D448D26
:10033000252F30E0842F90E0821B930B541710F090
:10034000CF96089501970895FC01918D828D98179D
:1003500061F0A28DAE0FBF2FB11D5D968C91928D75
:100360009F5F9F73928F90E008958FEF9FEF0895A6
:10037000FC01918D828D981731F0828DE80FF11D6F
:10038000858D90E008958FEF9FEF0895FC01918D8A
:10039000228D892F90E0805C9F4F821B91098F7383
:1003A0009927089585E69AE00E94C60121E0892BED
:1003B00009F420E0822F0895FC01A48DA80FB92F25
:1003C000B11DA35ABF4F2C91848D90E001968F737D
:1003D0009927848FA689B7892C93A089B1898C919C
:1003E000837080648C93938D848D981306C00288EB
:1003F000F389E02D80818F7D80830895EF92FF92B5
:100400000F931F93CF93DF93EC0181E0888F9B8D37
:100410008C8D98131AC0E889F989808185FF15C0F1
:100420009FB7F894EE89FF896083E889F989808114
:100430008370806480839FBF81E090E0DF91CF91E3
:100440001F910F91FF90EF900895F62E0B8D10E005
:100450000F5F1F4F0F731127E02E8C8D8E110CC074
:100460000FB607FCFACFE889F989808185FFF5CFBF
:10047000CE010E94DC01F1CFEB8DEC0FFD2FF11DC1
:10048000E35AFF4FF0829FB7F8940B8FEA89FB89FC
:1004900080818062CFCFCF93DF93EC01888D88235A
:1004A000B9F0AA89BB89E889F9898C9185FD03C0D7
:1004B000808186FD0DC00FB607FCF7CF8C9185FFBC
:1004C000F2CF808185FFEDCFCE010E94DC01E9CF24
:1004D000DF91CF91089580E090E0892B29F00E9470
:1004E000D20181110E94000080E090E0892B49F048
:1004F00080E090E0892B29F00E94000081110E9489
:10050000000080E090E0892B49F080E090E0892BAA
:1005100029F00E94000081110E94000080E090E01C
:10052000892B49F080E090E0892B29F00E9400009F
:1005300081110C94000008958150823108F05AC056
:10054000E82FF0E08827E855FD4F8F4F0C94F8080E
:10055000C802CC02BA02C002C402FA02CF02D5021B
:10056000D902DF02E302E702ED02F102FA02F5022C
:10057000FB02FF02809180008F77809380000895B6
:10058000809180008F7DF9CF80918000877FF5CFAB
:1005900084B58F7784BD089584B58F7DFBCF80911E
:1005A000B0008F778093B00008958091B0008F7D68
:1005B000F9CF809190008F7780939000089580917B
:1005C00090008F7DF9CF80919000877FF5CF80914B
:1005D000A0008F778093A00008958091A0008F7D68
:1005E000F9CF8091A000877FF5CF809120018F7790
:1005F000809320010895809120018F7DF9CF809113
:100600002001877FF5CFCF93DF93282F30E0F901CA
:10061000EE5DFD4F8491F901E452FE4FD491F90152
:10062000EA56FE4FC491CC23A1F081110E949C0296
:10063000EC2FF0E0EE0FFF1FE458FE4FA591B491B0
:10064000EC91ED2381E090E009F480E0DF91CF911F
:10065000089580E090E0FACF1F93CF93DF93282F87
:1006600030E0F901EE5DFD4F8491F901E452FE4F57
:10067000D491F901EA56FE4FC491CC23A9F0162F6C
:1006800081110E949C02EC2FF0E0EE0FFF1FEE594B
:10069000FE4FA591B4918FB7F894EC91111108C059
:1006A000D095DE23DC938FBFDF91CF911F9108950A
:1006B000DE2BF8CFCF93DF9390E0FC01E452FE4FA6
:1006C00024918A569E4FFC0184918823D1F090E0BA
:1006D000880F991FFC01E85BFE4FA591B491FC01C6
:1006E000EE59FE4FC591D49161110EC09FB7F89499
:1006F0008C91E22FE0958E238C932881E223E8836E
:100700009FBFDF91CF9108958FB7F894EC91E22BC2
:10071000EC938FBFF6CF863308F0865320917B0091
:10072000982F9870277F922B90937B00877080641E
:1007300080937C0080917A00806480937A0080911D
:100740007A0086FDFCCF8091780090917900089521
:100750003FB7F89480915B0A90915C0AA0915D0A82
:10076000B0915E0A26B5A89B05C02F3F19F00196EF
:10077000A11DB11D3FBFBA2FA92F982F8827BC01FB
:10078000CD01620F711D811D911D42E0660F771F23
:10079000881F991F4A95D1F70895CF92DF92EF9263
:1007A000FF920E94A8036B017C010E94A8036C19B0
:1007B0007D098E099F09683E734081059105A8F364
:1007C000FF90EF90DF90CF9008952FB7F89460914D
:1007D000570A7091580A8091590A90915A0A2FBF6E
:1007E0000895CF92DF92EF92FF920F931F93CF93D2
:1007F000DF931F921F92CDB7DEB769834A83880FBC
:10080000991F0091580B1091590B000F111FE2E036
:10081000FBE09F0122503B402017310714F4119256
:10082000F8CF2981FC01EE5FF44F21838A81808318
:1008300060E08091560B0E942C031016110604F5FF
:1008400001501109F801EE5FF44FE080D090540B95
:10085000C090520B88E0F82E6E2D661F6627661F2B
:100860008C2D0E942C03EE0C61E08D2D0E942C0338
:1008700060E08D2D0E942C03FA94F110EDCFDDCFB6
:1008800061E08091560B0F900F90DF91CF911F91F7
:100890000F91FF90EF90DF90CF900C942C03EF928C
:1008A000FF921F93CF93DF932091580B3091590BF8
:1008B00082179307B4F4EC0123E0880F991F2A955F
:1008C000E1F79C012E5E344F790111E0F70111929E
:1008D0007F0140E0612FCE010E94F1031F5F1930BC
:1008E000A9F7DF91CF911F91FF90EF900895BF92EC
:1008F000CF92DF92EF92FF920F931F93CF93DF93EC
:1009000034E0880F991F3A95E1F7EC01CC5FDD4F99
:100910006E011FE161E0812F0E942C03F12CE12C7C
:10092000F701EE0FFF1FEC0DFD1D808191810197F6
:1009300029F460E089E28E0D0E942C038FEFE81A03
:10094000F80A88E0E816F10459F70E94CD0360E048
:10095000812F0E942C0309E261E0802F0E942C036A
:100960000F5F0133C9F71F5F80E1C80ED11C17323A
:1009700089F6F12CE12C90E8C92ED12CC6010E2C61
:1009800002C0959587950A94E2F7B82E10E000E032
:10099000F801EE0FFF1FE058FF4FEC0FFD1F8081A5
:1009A0009181019799F48091580B9091590B1816E9
:1009B000190664F4F801EE5FF44F40894B29408B2F
:1009C00061E0600F90E080E00E94F1030F5F1F4F35
:1009D00008301105E9F60E94CD038FEFE81AF80AF6
:1009E000609688E0E816F10449F6DF91CF911F91F7
:1009F0000F91FF90EF90DF90CF90BF9008951F92DE
:100A00000F920FB60F9211240BB60F922F933F93B4
:100A10004F935F936F937F938F939F93AF93BF9306
:100A2000EF93FF9385E69AE00E94DC01FF91EF913E
:100A3000BF91AF919F918F917F916F915F914F91F6
:100A40003F912F910F900BBE0F900FBE0F901F90F4
:100A500018951F920F920FB60F9211240BB60F929A
:100A60002F938F939F93EF93FF93E091750AF091EB
:100A7000760A8081E0917B0AF0917C0A82FD1DC09C
:100A8000908180917E0A8F5F8F7320917F0A8217F9
:100A900041F0E0917E0AF0E0EB59F54F958F80939D
:100AA0007E0AFF91EF919F918F912F910F900BBE36
:100AB0000F900FBE0F901F9018958081F2CF1F925C
:100AC0000F920FB60F9211242F933F938F939F9302
:100AD000AF93BF938091570A9091580AA091590AF9
:100AE000B0915A0A3091560A23E0230F2D3758F55A
:100AF0000196A11DB11D2093560A8093570A909329
:100B0000580AA093590AB0935A0A80915B0A9091AF
:100B10005C0AA0915D0AB0915E0A0196A11DB11D0B
:100B200080935B0A90935C0AA0935D0AB0935E0A7F
:100B3000BF91AF919F918F913F912F910F900FBED9
:100B40000F901F90189526E8230F0296A11DB11D46
:100B5000D2CFCF93DF931092680A1092670A88EE83
:100B600093E0A0E0B0E08093690A90936A0AA093B2
:100B70006B0AB0936C0A88E49AE09093660A8093BB
:100B8000650A85EC90E09093720A8093710A84EC78
:100B900090E09093740A8093730A80EC90E09093B5
:100BA000760A8093750A81EC90E09093780A80939E
:100BB000770A82EC90E090937A0A8093790A86EC27
:100BC00090E090937C0A80937B0A10927E0A1092A8
:100BD0007F0A1092800A1092810AC3E3D0E0D0937A
:100BE000530BC093520B84E390E09093550B80938A
:100BF000540B85E390E09093570B8093560B81E064
:100C000090E09093590B8093580B61E083E30E942E
:100C10005A0361E08091540B0E945A0361E0809175
:100C2000560B0E945A0361E08091560B0E942C03E0
:100C3000D093530BC093520BE2E1FBE082E59BE0C3
:100C400011928E179F07E1F7D0E0C0E08091580B1A
:100C50009091590BC817D9073CF540E06FE0CE01E1
:100C60000E94F1038091580B9091590BC817D90736
:100C70002CF447E06BE0CE010E94F10340E069E014
:100C8000CE010E94F103CE010E944F048091580BC7
:100C90009091590BC817D9072CF440E06CE0CE01B5
:100CA0000E94F1032196D2CFDF91CF9108957894DD
:100CB00084B5826084BD84B5816084BD85B5826061
:100CC00085BD85B5816085BD80916E008160809312
:100CD0006E0010928100809181008260809381007B
:100CE000809181008160809381008091800081608B
:100CF000809380008091B10084608093B1008091E6
:100D0000B00081608093B0008091910082608093F8
:100D1000910080919100816080939100809190007A
:100D20008160809390008091A10082608093A100F7
:100D30008091A10081608093A1008091A0008160DA
:100D40008093A00080912101826080932101809195
:100D50002101816080932101809120018160809335
:100D6000200180917A00846080937A0080917A00DB
:100D7000826080937A0080917A00816080937A000B
:100D800080917A00806880937A001092C10061E0BF
:100D90008BE10E942C0361E08BE10E945A030E94C8
:100DA000E5036093610A7093620A8093630A9093EB
:100DB000640A0E94E50387E30E948B03BC01990F3C
:100DC000880B990B611571058105910511F00E9441
:100DD0008C08E091750AF091760A82E08083E091B8
:100DE000710AF091720A1082E091730AF091740A0C
:100DF0008FEC808310927D0AE091790AF0917A0A53
:100E000086E08083E091770AF091780A80818061A2
:100E10008083E091770AF091780A808188608083EE
:100E2000E091770AF091780A808180688083E09170
:100E3000770AF091780A80818F7D808360E086E177
:100E40000E945A0360E087E10E945A03CFE161E00B
:100E50008C2F0E945A03CF5FC732C9F7C9E261E005
:100E60008C2F0E945A03CF5FC133C9F7C9E261E0FA
:100E70008C2F0E942C03CF5FC133C9F78091580B90
:100E80009091590B1816190634F441E06CE090E08B
:100E900080E00E94F1038091580B9091590B181635
:100EA000190634F44FE06AE090E080E00E94F1031C
:100EB00090E080E00E944F0405E710E088E30E9484
:100EC0008B03EC0186E10E940303892B09F040C0EB
:100ED0000E94E503C090610AD090620AE090630A24
:100EE000F090640A6C197D098E099F096E010D2E20
:100EF000000CEE08FF08C616D706E806F906B8F497
:100F000080915F0A9091600A01969093600A8093A5
:100F10005F0A0E94E5036093610A7093620A8093FE
:100F2000630A9093640A90E080E00E944F048091ED
:100F30005F0A9091600A8537910521F41092600A4A
:100F400010925F0A80915F0A9091600A0E94770474
:100F500086E10E940303019709F040C00E94E50367
:100F6000C090610AD090620AE090630AF090640A2F
:100F7000AB01BC014C195D096E097F09CE01DD0F83
:100F8000AA0BBB0B84179507A607B707B8F4809187
:100F90005F0A9091600A01979093600A80935F0ABC
:100FA0000E94E5036093610A7093620A8093630A6A
:100FB0009093640A90E080E00E944F0480915F0A61
:100FC0009091600A019621F41093600A00935F0AE1
:100FD00080915F0A9091600A0E9477040E946B02E0
:100FE0006DCF8F929F92AF92BF92CF92DF92EF928E
:100FF000FF92CF93DF93EC01688179818A819B8195
:10100000611571058105910521F464E279ED8BE5A7
:1010100097E02DE133EF41E050E00E94950849014F
:101020005A019B01AC01A7EAB1E40E94B4086B012C
:101030007C01ACEEB4EFA50194010E94C208C60E7B
:10104000D71EE81EF91EF7FE06C081E0C81AD108B7
:10105000E10880E8F80AC882D982EA82FB82C701E7
:10106000B6019F77DF91CF91FF90EF90DF90CF9007
:10107000BF90AF909F908F9008958F929F92AF9264
:10108000BF92CF92DF92EF92FF9260910002709137
:1010900001028091020290910302611571058105A0
:1010A000910521F464E279ED8BE597E02DE133EFD2
:1010B00041E050E00E94950849015A019B01AC01B2
:1010C000A7EAB1E40E94B4086B017C01ACEEB4EF76
:1010D000A50194010E94C208C60ED71EE81EF91E83
:1010E000F7FE06C081E0C81AD108E10880E8F80AD6
:1010F000C0920002D0920102E0920202F09203023A
:10110000C701B6019F77FF90EF90DF90CF90BF901F
:10111000AF909F908F9008956093000270930102AA
:1011200080930202909303020895052E97FB1EF40C
:1011300000940E94AC0857FD07D00E94C70807FC26
:1011400003D04EF40C94AC08509540953095219501
:101150003F4F4F4F5F4F08959095809570956195E3
:101160007F4F8F4F9F4F08950E94E908A59F900DD4
:10117000B49F900DA49F800D911D11240895B7FF79
:101180000C94B4080E94B408821B930B0895A1E24A
:101190001A2EAA1BBB1BFD010DC0AA1FBB1FEE1FF1
:1011A000FF1FA217B307E407F50720F0A21BB30B3C
:1011B000E40BF50B661F771F881F991F1A9469F7B8
:1011C00060957095809590959B01AC01BD01CF0114
:1011D0000895A29FB001B39FC001A39F700D811D10
:1011E0001124911DB29F700D811D1124911D089530
:1011F000EE0FFF1F881F8BBF0790F691E02D19940B
:04120000F894FFCF90
:1012040001000000000000000000010000000000D8
:1012140000000000000000000000000001000000C9
:1012240000000000000000000000000000000100B9
:1012340000000000000000000000000000000100A9
:101244000000000000000000000000000100000099
:101254000000000000000000000001000000000089
:10126400000000000000000000000000000000007A
:101274000000000000000100010001000100010065
:101284000100000000000000000001000000000058
:101294000100000000000000000001000000000048
:1012A4000100000000000000000000000100010037
:1012B400000000000000000000000000000000002A
:1012C4000000000000000100010001000100010015
:1012D4000100000000000000000001000000000008
:1012E40001000000000000000100010000000000F7
:1012F40001000000000001000000000001000100E6
:1013040000000000000000000000000000000000D9
:1013140000000000000001000100000000000000C7
:1013240000000000000000000000010001000000B7
:1013340000000000000000000000010000000100A7
:101344000100000000000000000001000100000096
:101354000000000000000100010000000000000087
:101364000000000000000000000000000000000079
:101374000000000000000000010001000100010065
:101384000000000000000100000000000000000058
:101394000100000000000100000000000000000047
:1013A4000100000000000100000000000000000037
:1013B4000100000000000100000000000000000027
:1013C4000100000000000000000000000000000018
:1013D4000000000000000100000000000100000007
:1013E40000000000000001000000000000000100F7
:1013F40000000000000001000100010001000100E4
:1014040001000000000001000000000000000000D6
:1014140000000000000000000000000000000000C8
:1014240000000000000000000000010001000000B6
:1014340000000000000000000000010001000000A6
:101444000000000000000000000001000100000096
:101454000000000000000000000000000000000088
:101464000000000000000000010001000100010074
:101474000000000000000100000000000000000067
:101484000100000000000100000001000100000054
:101494000100000000000100000000000100000045
:1014A4000100000000000000010001000000000035
:1014B4000000000000000000000000000000000028
:1014C4000000000000000100010001000100010013
:1014D4000100000000000000000001000000000006
:1014E40001000000000000000100010000000000F5
:1014F40001000000000001000000000001000100E4
:1015040000000000000000000000000000000000D7
:1015140000000000000000000100010001000100C3
:1015240001000000000001000000000000000000B5
:1015340000000000000001000000000000000000A6
:101544000000000000000100000000000000000096
:101554000000000000000000010001000100010083
:101564000100000000000000000000000000000076
:101574000000000000000100010001000100010062
:101584000100000000000000000001000000000055
:101594000100000000000000000001000000000045
:1015A4000100000000000000000000000100010034
:1015B4000000000000000000000000000000000027
:1015C4000000000000000000010001000100010013
:1015D4000000000000000100000000000000000006
:1015E40001000000000001000000000000000000F5
:1015F40001000000000001000000000000000000E5
:1016040001000000000000000100010001000100D1
:1016140000000000000000000000000000000000C6
:1016240000000000000000000000010000000100B4
:1016340000000000000000000100010001000100A2
:101644000100000000000000000001000000010093
:101654000000000000000000010001000100010082
:101664000100000000000000000001000000010073
:101674000000000000000000000000000000000066
:101684000000000000000100010000000000010053
:101694000000000000000100000001000000000044
:1016A4000100000000000100000000000100000033
:1016B4000100000000000100000000000000010023
:1016C4000000000000000000000000000000000016
:1016D4000000000000000000000001000100000004
:1016E40000000000000000000000010001000000F4
:1016F40000000000000000000000010001000000E4
:1017040000000000000000000000000000000000D5
:1017140000000000000001000000000000000100C3
:1017240000000000000001000000000001000000B3
:1017340001000000000001000000000001000000A2
:101744000100000000000000010001000000000092
:101754000100000000000000000000000000000084
:101764000000000000000100010001000100010070
:101774000100000000000100000000000100000062
:101784000100000000000100000000000100000052
:101794000100000000000100000000000100000042
:1017A4000100000000000100000000000000000033
:1017B4000100000000000000000000000000000024
:1017C4000000000000000000010001000100010011
:1017D4000000000000000100000000000000000004
:1017E40001000000000001000000000000000000F3
:1017F40001000000000001000000000000000000E3
:1018040001000000000001000000000000000000D2
:1018140001000000000000000000000000000000C3
:1018240000000000000000000100010001000100B0
:1018340000000000000001000000000000000000A3
:101844000100000000000100000000000000000092
:101854000100000000000100000000000000000082
:101864000100000000000100000000000000000072
:101874000100000000000000000000000000000063
:101884000000000000000000000000000000000054
:101894000000000000000000000000000000000044
:1018A4000000000000000100010000000000000032
:1018B4000000000000000000000001000100000022
:1018C4000000000000000000000001000000010012
:1018D4000100000000000000000001000100000001
:1018E40000000000000001000100000000000000F2
:1018F40000000000000000000000000000000000E4
:1019040000000000000000000000000000000000D3
:1019140000000000000000000000000000000000C3
:1019240000000000000000000000010000000000B2
:1019340000000000000000000000000001000000A2
:101944000000000000000000000000000000010092
:101954000000000000000000000000000000010082
:101964000000000000000000000000000100000072
:101974000000000000000000000001000000000062
:101984000000000000000000000000000000000053
:101994000000000000000000000000000000000043
:1019A4000000000000000000000000000000000033
:1019B4000000000000000000000000000000000023
:1019C4000000000000000000000000000000000013
:1019D4000000000000000000000000000000000003
:1019E40000000000000000000000000000000000F3
:1019F40000000000000000000000000000000000E3
:101A040000000000000000000000000000000000D2
:101A140000000000000000000000000000000000C2
:101A240000000000000000000000000000000000B2
:101A340000000000000000000000000000000000A2
:101A44000000000000000000FE01680195014B0247
:061A5400C601A401B80167
:00000001FF
