:100000000C945D010C948E010C948E010C948E0165
:100010000C948E010C948E010C948E010C948E0124
:100020000C948E010C948E010C948E010C948E0114
:100030000C948E010C948E010C948E010C948E0104
:100040000C948E010C948E010C948E010C948E01F4
:100050000C948E010C948E010C948E010C94C009AA
:100060000C948E010C948A090C9460090C948E01F6
:100070000C948E010C948E010C948E010C948E01C4
:100080000C948E010C948E010C948E010C948E01B4
:100090000C948E010C948E010C948E010C948E01A4
:1000A0000C948E010C948E010C948E010C948E0194
:1000B0000C948E010C948E010C948E010C948E0184
:1000C0000C948E010C948E010C948E010C948E0174
:1000D0000C948E010C948E010C948E010C948E0164
:1000E0000C948E010C94CC010C9422030C9490017E
:1000F0000C94C7050C940F030C94E2020C94D705E2
:100100000C94DF050C9489040C94DB050C947302A9
:100110000C940B030C9407030C94EE010C9419033C
:100120000C94E7050C94E8020C9415030C941D0341
:100130000C9491040C94CF050C9443040C94270365
:100140000C94F0020C94F7020C94FD020C940A0A31
:100150000C9426020C948D040C949E050C9475044A
:100160000C9479040C94F4020C9423030C947D04F5
:100170000C94E3050C9471040C94BD010C94CB0514
:100180000C9481040C94EC020C94E0010C94850412
:100190000C9401030C94D3050000210024002700D7
:1001A0002A002D0030003300010100000401070186
:1001B0000A0100002200250028002B002E0031003B
:1001C000340002010000050108010B0100002000BD
:1001D0002300260029002C002F003200000100001F
:1001E00003010601090105050505070508080808BA
:1001F000020202020A0A08080404040401010101BF
:1002000001010101030303030303030304070707B9
:100210000C0C0C0C0C0C0C0C02020202060606065E
:10022000060606060B0B0B0B0B0B0B0B010210202B
:10023000200808102040102040800201020108041C
:1002400002010102040810204080804020100804B0
:100250000201800402018040201008040201080409
:10026000020101020408102040800102040810204D
:10027000408000000A0B02090C0D0E080703040160
:10028000000000000000000000000000000000006E
:10029000000000000000000000000000000012113B
:1002A000100000000000000000000000000000003E
:1002B00000000000000000000A0A11241FBECFEF5A
:1002C000D1E2DEBFCDBF00E00CBF11E1A0E0B2E0A3
:1002D000E8E9FFE100E00BBF02C007900D92A632F3
:1002E000B107D9F724E1A6E2B1E101C01D92AA3716
:1002F000B207E1F711E0CDE5D1E000E006C02197BB
:100300000109802FFE010E94AE0FCC35D10780E09D
:100310000807A9F70E94B80A0C94CA0F0C940000B1
:10032000AF92BF92CF92DF92EF92FF920F931F9303
:10033000CF93DF936C017B018B01040F151FEB0141
:100340005E01AE18BF08C017D10759F06991D601F8
:10035000ED91FC910190F081E02DC6011995892B5A
:1003600079F7C501DF91CF911F910F91FF90EF9029
:10037000DF90CF90BF90AF900895FC01538D448DD6
:10038000252F30E0842F90E0821B930B541710F040
:10039000CF96089501970895FC01918D828D98174D
:1003A00061F0A28DAE0FBF2FB11D5D968C91928D25
:1003B0009F5F9F73928F90E008958FEF9FEF089556
:1003C000FC01918D828D981731F0828DE80FF11D1F
:1003D000858D90E008958FEF9FEF0895FC01918D3A
:1003E000228D892F90E0805C9F4F821B91098F7333
:1003F0009927089585E893E10E94EE0121E0892B79
:1004000009F420E0822F0895FC01A48DA80FB92FD4
:10041000B11DA35ABF4F2C91848D90E001968F732C
:100420009927848FA689B7892C93A089B1898C914B
:10043000837080648C93938D848D981306C002889A
:10044000F389E02D80818F7D80830895EF92FF9264
:100450000F931F93CF93DF93EC0181E0888F9B8DE7
:100460008C8D98131AC0E889F989808185FF15C0A1
:100470009FB7F894EE89FF896083E889F9898081C4
:100480008370806480839FBF81E090E0DF91CF9193
:100490001F910F91FF90EF900895F62E0B8D10E0B5
:1004A0000F5F1F4F0F731127E02E8C8D8E110CC024
:1004B0000FB607FCFACFE889F989808185FFF5CF6F
:1004C000CE010E940402F1CFEB8DEC0FFD2FF11D48
:1004D000E35AFF4FF0829FB7F8940B8FEA89FB89AC
:1004E00080818062CFCFCF93DF93EC01888D88230A
:1004F000B9F0AA89BB89E889F9898C9185FD03C087
:10050000808186FD0DC00FB607FCF7CF8C9185FF6B
:10051000F2CF808185FFEDCFCE010E940402E9CFAA
:10052000DF91CF91089580E090E0892B29F00E941F
:10053000FA0181110E94000080E090E0892B49F0CF
:1005400080E090E0892B29F00E94000081110E9438
:10055000000080E090E0892B49F080E090E0892B5A
:1005600029F00E94000081110E94000080E090E0CC
:10057000892B49F080E090E0892B29F00E9400004F
:1005800081110C94000008958150823108F05AC006
:10059000E82FF0E08827E053FD4F8F4F0C94AE0F0B
:1005A000F002F402E202E802EC022203F702FD028A
:1005B000010307030B030F031503190322031D0394
:1005C00023032703809180008F7780938000089514
:1005D000809180008F7DF9CF80918000877FF5CF5B
:1005E00084B58F7784BD089584B58F7DFBCF8091CE
:1005F000B0008F778093B00008958091B0008F7D18
:10060000F9CF809190008F7780939000089580912A
:1006100090008F7DF9CF80919000877FF5CF8091FA
:10062000A0008F778093A00008958091A0008F7D17
:10063000F9CF8091A000877FF5CF809120018F773F
:10064000809320010895809120018F7DF9CF8091C2
:100650002001877FF5CFCF93DF93282F30E0F9017A
:10066000EE58FD4F8491F901E45DFD4FD491F901FD
:10067000EA51FE4FC491CC23A1F081110E94C40223
:10068000EC2FF0E0EE0FFF1FE453FE4FA591B49165
:10069000EC91ED2381E090E009F480E0DF91CF91CF
:1006A000089580E090E0FACF1F93CF93DF93282F37
:1006B00030E0F901EE58FD4F8491F901E45DFD4F02
:1006C000D491F901EA51FE4FC491CC23A9F0162F21
:1006D00081110E94C402EC2FF0E0EE0FFF1FEE54D8
:1006E000FE4FA591B4918FB7F894EC91111108C009
:1006F000D095DE23DC938FBFDF91CF911F910895BA
:10070000DE2BF8CFCF93DF9390E0FC01E45DFD4F4B
:1007100024918A519E4FFC0184918823D1F090E06E
:10072000880F991FFC01E856FE4FA591B491FC017A
:10073000EE54FE4FC591D49161110EC09FB7F8944D
:100740008C91E22FE0958E238C932881E223E8831D
:100750009FBFDF91CF9108958FB7F894EC91E22B72
:10076000EC938FBFF6CF863308F0865320917B0041
:10077000982F9870277F922B90937B0087708064CE
:1007800080937C0080917A00806480937A008091CD
:100790007A0086FDFCCF80917800909179000895D1
:1007A0003FB7F8948091311190913211A09133119B
:1007B000B091341126B5A89B05C02F3F19F00196C2
:1007C000A11DB11D3FBFBA2FA92F982F8827BC01AB
:1007D000CD01620F711D811D911D42E0660F771FD3
:1007E000881F991F4A95D1F70895CF92DF92EF9213
:1007F000FF920E94D0036B017C010E94D0036C1910
:100800007D098E099F09683E734081059105A8F313
:10081000FF90EF90DF90CF9008952FB7F8946091FC
:100820002D1170912E1180912F11909130112FBFA9
:100830000895CF92DF92EF92FF920F931F93CF9381
:10084000DF936C01F12CE12CDFE161E08D2F0E9440
:1008500054038701C9E2F801EC5AF44F8AE0C81644
:10086000D104A0F4F6018827E75CFB4F8F4F0C946E
:10087000AE0F43047104750479047D04810485047A
:1008800089048D049104F801EC5AFF4E8081918116
:10089000019721F460E08C2F0E945403CF5F0E5F1C
:1008A0001F4FC133C1F60E94F50360E08D2F0E94F7
:1008B0005403C9E261E08C2F0E945403CF5FC1331F
:1008C000C9F7DF5F80E1E80EF11CD73209F0BDCF38
:1008D000DF91CF911F910F91FF90EF90DF90CF901C
:1008E0000895F801EC52F04FD1CFF801EC5AF04FD7
:1008F000CDCFF801EC52F14FC9CFF801EC5AF14FCE
:10090000C5CFF801EC52F24FC1CFF801EC5AF24FCB
:10091000BDCFF801EC52F34FB9CFF801EC5AF34FC9
:10092000B5CFF801EC52F44FB1CFE2EEF2E030E097
:1009300020E0BC016F5F7F4F41E050E02617370792
:10094000E9F0118210822F5F3F4F32962830310537
:10095000A9F7E2EFF2E030E020E0BC016E5F7F4FEC
:1009600041E050E02817390764F4118210822F5FAC
:100970003F4F329628303105A9F7089551834083BF
:10098000E2CF621773078CF351834083F0CFCF928D
:10099000DF92EF92FF920F931F93CF93DF931F92FB
:1009A0001F92CDB7DEB769834A83880F991F0091E4
:1009B000781410917914000F111FE2E2F4E19F0105
:1009C000225234412017310714F41192F8CF2981B3
:1009D000FC01EE5DFB4E21838A81808360E0809183
:1009E00076140E9454031016110604F501501109E3
:1009F000F801EE5DFB4EE080D0907414C09072144C
:100A000088E0F82E6E2D661F6627661F8C2D0E94CB
:100A10005403EE0C61E08D2D0E94540360E08D2D97
:100A20000E945403FA94F110EDCFDDCF61E0809184
:100A300076140F900F90DF91CF911F910F91FF903F
:100A4000EF90DF90CF900C945403EF92FF921F939E
:100A5000CF93DF9320917814309179148217930704
:100A6000B4F4EC0123E0880F991F2A95E1F79C016B
:100A70002E5C3B4E790111E0F70111927F0140E0BD
:100A8000612FCE010E94C7041F5F1930A9F7DF91C3
:100A9000CF911F91FF90EF9008952091781430919D
:100AA000791412161306FCF488309105E4F46830CA
:100AB0007105C9F020E830E002C0359527956A95A8
:100AC000E2F7FC01EE5DFB4E5089442349F0252BF3
:100AD000208B61E0680F408990E080E00C94C704AF
:100AE00020952523F5CF0895AF92BF92CF92DF9244
:100AF000EF92FF920F931F93CF93DF935C01D12C62
:100B0000C12CD0E0C0E0760110E000E0F701EC5A23
:100B1000F44F8AE0A816B104A0F4F5018827EC563A
:100B2000FA4F8F4F0C94AE0F9E05C705CB05CF052E
:100B3000D305D705DB05DF05E305E705F701EC5A2B
:100B4000FF4E80819181019729F441E0BE01C801E7
:100B50000E944D050F5F1F4F82E0E80EF11C083028
:100B60001105A1F60E94F503219680E1C80ED11C63
:100B7000C830D10509F0C7CFDF91CF911F910F91F8
:100B8000FF90EF90DF90CF90BF90AF900895F70166
:100B9000EC52F04FD6CFF701EC5AF04FD2CFF7011D
:100BA000EC52F14FCECFF701EC5AF14FCACFF7011B
:100BB000EC52F24FC6CFF701EC5AF24FC2CFF70119
:100BC000EC52F34FBECFF701EC5AF34FBACFF70117
:100BD000EC52F44FB6CF0F931F9390E080E00E9449
:100BE000250520912A1130912B11C9016AE070E08E
:100BF0000E949A0F8B016B30710554F08AE090E0EF
:100C00000E9474058AE090E01F910F910C941904E2
:100C100046EF4603C001479F900D1124820F931F9A
:100C20000E947405C801F0CF4F925F926F927F923D
:100C30008F929F92AF92BF92CF92DF92EF92FF92EC
:100C40000F931F93CF93DF9307E411E1C7E7D2E13E
:100C500022E0822E22E0922E74016E0158013FE1C3
:100C6000532E61E0852D0E945403712C612C99E272
:100C7000492EF701E60DF71D80819181019771F0F2
:100C8000F601E60DF71D80819181019739F0F5019C
:100C9000E60DF71D80A991A9019721F460E0842D4C
:100CA0000E945403439482E0680E711CE1E34E12EB
:100CB000E0CF0E94F50360E0852D0E94540389E295
:100CC000782E61E0872D0E9454037394F1E37F1224
:100CD000F8CF539480E1A80EB11CE0E1CE0ED11CF8
:100CE000F0E1EF0EF11C87E25812BBCFF12CE12CA2
:100CF000B12CA12CD12CC12CC50180589F4FF401DF
:100D0000E80FF91F208131812130310581F08C0FEE
:100D10009D1FFC0180819181019749F0F501E0550B
:100D2000FF4FE00FF11F80819181019729F441E08D
:100D3000B701C6010E944D05FFEFCF1ADF0A82E01E
:100D4000A80EB11CE8E0CE16D104B1F60E94F5035E
:100D5000FFEFEF1AFF0A005F1F4F609680E1880ED9
:100D6000911CE8E0EE16F10419F6DF91CF911F9186
:100D70000F91FF90EF90DF90CF90BF90AF909F903A
:100D80008F907F906F905F904F900895CF92DF92F9
:100D9000EF92FF920F931F93CF93DF9324E0880F7E
:100DA000991F2A95E1F7EC01CC5EDC4F6E011FE143
:100DB00061E0812F0E945403F12CE12CF701EE0F2A
:100DC000FF1FEC0DFD1D80819181019729F460E0EA
:100DD00089E28E0D0E9454038FEFE81AF80A88E02A
:100DE000E816F10459F70E94F50360E0812F0E9494
:100DF000540309E261E0802F0E9454030F5F013326
:100E0000C9F71F5F80E1C80ED11C173289F6F12C9B
:100E1000E12C10E000E0F801EE0FFF1FE058FF4F5B
:100E2000EC0FFD1F80819181019729F441E0B7010A
:100E3000C8010E944D050F5F1F4F0830110559F77B
:100E40000E94F5038FEFE81AF80A609688E0E8162A
:100E5000F104F9F6DF91CF911F910F91FF90EF9080
:100E6000DF90CF900895FC0101900020E9F73197C1
:100E7000AF01481B590BBC0185E893E10C9490012C
:100E8000CF93DF930E943307EC0186EE90E10E943E
:100E900033078C0F9D1FDF91CF910895CF92DF9282
:100EA000EF92FF920F931F93CF93DF9387E2E82E89
:100EB00082E1F82E02EE12E093E0C92ED12CD0E0B0
:100EC000C0E0F801EC0FFD1F808191810197F1F5E1
:100ED000F701EC0FFD1F80A991A90197B9F589EEE3
:100EE00090E10E944007D0928413C092831367E779
:100EF00072E147E451E122E032E090E080E0F90164
:100F0000E80FF91F11821082FB01E80FF91F11820F
:100F10001082FA01E80FF91F11AA10AA0296803177
:100F2000910569F7205F3F4F605F7F4F405F5F4FE4
:100F300083E02230380709F70E940D0460937F1385
:100F40007093801380938113909382132296C03103
:100F5000D10509F0B6CF80E1E80EF11C005F1F4F0C
:100F600083E00230180709F0AACFDF91CF911F91DB
:100F70000F91FF90EF90DF90CF900895CF92DF9286
:100F8000EF92FF920F931F93CF93DF9387E10E941D
:100F90002B03EC01892B09F085C00091831310917C
:100FA000841302301105E9F480910002909101024E
:100FB00081309105B1F490932911809328110E94FA
:100FC0000D0487E10E942B0390930102809300029D
:100FD000DF91CF911F910F91FF90EF90DF90CF9015
:100FE00008958091261190912711892B89F481E031
:100FF00090E090932711809326110E940D04609336
:101000003511709336118093371190933811D9CFE1
:101010000E940D04C0903511D0903611E090371128
:10102000F09038116C197D098E099F09693B7B404E
:101030008105910530F2109227111092261101308E
:101040001105A1F00230110541F1012B51F481E0AD
:1010500090E0909384138093831383EF90E10E9438
:10106000400790E080E00E942505ABCF82E090E051
:10107000909384138093831340E0BE018EE090E050
:101080000E944D0540E0BE018FE090E00E944D05BA
:101090002196C830D10581F7E4CF60E08BE10E9452
:1010A0005403DFCF8091261190912711019731F5DC
:1010B000C0912811D0912911C130D105F9F40E94B5
:1010C0000D04009135111091361120913711309196
:1010D0003811601B710B820B930B683B7B408105C1
:1010E000910560F4D0938413C093831390E080E063
:1010F0000E94250510922911109228111092271193
:10110000109226115ECF2F923F924F925F926F9274
:101110007F928F929F92AF92BF92CF92DF92EF9287
:10112000FF920F931F93CF93DF93CDB7DEB7A397B3
:101130000FB6F894DEBF0FBECDBF87E7E82E82E181
:10114000F82E97E4C92E91E1D92E27E7222E21E12E
:10115000322E3AE0432E512C612C712C10E000E02D
:10116000C701800F911F9BA38AA3FC0180819181FD
:10117000019709F061C0F601E00FF11F80A991A964
:10118000019709F059C080912A1190912B11019675
:1011900090932B1180932A1182E091E10E943307F2
:1011A00080902A1190902B11092C000CAA08BB08E2
:1011B000B7FE70C06DE285E893E10E942602222707
:1011C0003327A901281939094A095B0919A2CE0157
:1011D00081965C01CA01B901A30192010E94690FC5
:1011E000605DF50162935F012115310541055105EF
:1011F00089F7A114B10419F0C5010E94330786EEE6
:1012000090E10E943307EAA1FBA111821082F6014E
:10121000709690E080E0D101A80FB91F1D921C923A
:10122000118A108A1192119217A616A617AE16AE41
:1012300002968031910579F70E5F1F4F003111053D
:1012400009F08ECFF0E1EF0EF11C80E1C80ED11C49
:1012500090E1290E311CE7E7F3E1EE15FF0509F0F7
:101260007DCFA3960FB6F894DEBF0FBECDBFDF9142
:10127000CF911F910F91FF90EF90DF90CF90BF9093
:10128000AF909F908F907F906F905F904F903F9026
:101290002F900895A501940119A2CE0181965C01B9
:1012A000CA01B901A30192010E94690F605DF501B5
:1012B00062935F01211531054105510589F799CFE9
:1012C0001F920F920FB60F9211240BB60F922F930D
:1012D0003F934F935F936F937F938F939F93AF93BE
:1012E000BF93EF93FF9385E893E10E940402FF917F
:1012F000EF91BF91AF919F918F917F916F915F918E
:101300004F913F912F910F900BBE0F900FBE0F90FA
:101310001F9018951F920F920FB60F9211240BB6C3
:101320000F922F938F939F93EF93FF93E0919513D9
:10133000F09196138081E0919B13F0919C1382FDB4
:101340001DC0908180919E138F5F8F7320919F139A
:10135000821741F0E0919E13F0E0EB57FC4E958F21
:1013600080939E13FF91EF919F918F912F910F90FA
:101370000BBE0F900FBE0F901F9018958081F2CF7B
:101380001F920F920FB60F9211242F933F938F93BA
:101390009F93AF93BF9380912D1190912E11A091A7
:1013A0002F11B091301130912C1123E0230F2D37E4
:1013B00058F50196A11DB11D20932C1180932D117C
:1013C00090932E11A0932F11B09330118091311171
:1013D00090913211A0913311B09134110196A11D59
:1013E000B11D8093311190933211A0933311B093BA
:1013F0003411BF91AF919F918F913F912F910F9099
:101400000FBE0F901F90189526E8230F0296A11D7E
:10141000B11DD2CFCF93DF93109288131092871310
:1014200088EE93E0A0E0B0E08093891390938A1354
:10143000A0938B13B0938C1388ED90E19093861357
:101440008093851385EC90E0909392138093911391
:1014500084EC90E0909394138093931380EC90E04D
:10146000909396138093951381EC90E0909398134A
:101470008093971382EC90E090939A138093991342
:1014800086EC90E090939C1380939B1310929E1394
:1014900010929F131092A0131092A113C3E3D0E0F7
:1014A000D0937314C093721484E390E090937514F6
:1014B0008093741485E390E090937714809376146E
:1014C00081E090E0909379148093781461E083E355
:1014D0000E94820361E0809174140E94820361E0A3
:1014E000809176140E94820361E0809176140E94BC
:1014F0005403D0937314C0937214E2E3F4E182E7CF
:1015000094E111928E179F07E1F7D0E0C0E080913F
:10151000781490917914C817D9073CF540E06FE032
:10152000CE010E94C7048091781490917914C81755
:10153000D9072CF447E06BE0CE010E94C70440E0DD
:1015400069E0CE010E94C704CE010E94250580916A
:10155000781490917914C817D9072CF440E06CE006
:10156000CE010E94C7042196D2CFDF91CF9108957A
:10157000789484B5826084BD84B5816084BD85B56E
:10158000826085BD85B5816085BD80916E0081607A
:1015900080936E0010928100809181008260809320
:1015A0008100809181008160809381008091800022
:1015B0008160809380008091B10084608093B1004D
:1015C0008091B00081608093B00080919100826032
:1015D000809391008091910081608093910080912F
:1015E00090008160809390008091A1008260809340
:1015F000A1008091A10081608093A1008091A00052
:1016000081608093A00080912101826080932101FC
:10161000809121018160809321018091200181606E
:101620008093200180917A00846080937A00809179
:101630007A00826080937A0080917A008160809342
:101640007A0080917A00806880937A001092C100BD
:1016500061E08BE10E94540361E08BE10E94820310
:101660000E940D0460933B1170933C1180933D11D7
:1016700090933E110E940D046093351170933611C2
:10168000809337119093381187E30E94B303BC0114
:10169000990F880B990B611571058105910511F062
:1016A0000E942E0FE0919513F091961382E08083B3
:1016B000E0919113F09192131082E0919313F091C5
:1016C00094138FEC808310929D13E0919913F09105
:1016D0009A1386E08083E0919713F09198138081AC
:1016E00080618083E0919713F091981380818860E6
:1016F0008083E0919713F0919813808180688083B4
:10170000E0919713F091981380818F7D808360E042
:1017100086E10E94820360E087E10E94820360E02C
:1017200088E10E94820360E089E10E94820360E018
:101730008AE10E948203CFE161E08C2F0E94820344
:10174000CF5FC732C9F7C9E261E08C2F0E948203E4
:10175000CF5FC133C9F7C9E261E08C2F0E94540307
:10176000CF5FC133C9F7809178149091791418161E
:10177000190634F441E06CE090E080E00E94C70478
:1017800080917814909179141816190634F44FE06A
:101790006AE090E080E00E94C70490E080E00E9450
:1017A000250575E0472E512C612C712CE5E72E2E76
:1017B000312C01E010E0C0918313D0918413209765
:1017C00009F002C188E30E94B3036C01C091451186
:1017D000D0914611E0904311F090441188E10E94AD
:1017E0002B03892B59F4C130D10521F410924611F5
:1017F0001092451110934411009343118AE10E9405
:101800002B03892B71F4809143119091441101971E
:1018100021F4109244111092431110934611009339
:10182000451187E10E942B03892B69F421E0E21620
:10183000F10409F091C0F0924211E092411110922E
:10184000401110923F1180903B1190903C11A0905C
:101850003D11B0903E110D2C000CEE08FF08C09118
:101860003911D0913A118091411190914211019713
:1018700009F07FC00E940D04681979098A099B0943
:10188000C616D706E806F90698F42197D0933A11C0
:10189000C09339110E940D0460933B1170933C1169
:1018A00080933D1190933E1190E080E00E942505C9
:1018B0008091391190913A11019621F430923A11A8
:1018C000209239118091391190913A110E94C606E7
:1018D00080913F11909140110197D9F50E940D041C
:1018E00080903B1190903C11A0903D11B0903E1122
:1018F000681979098A099B09C616D706E806F90608
:10190000B8F48091391190913A11019690933A115F
:10191000809339110E940D0460933B1170933C1128
:1019200080933D1190933E1190E080E00E94250548
:101930008091391190913A118537910521F41092D7
:101940003A11109239118091391190913A110E94F7
:10195000C6060E94BE07B1C1C130D10509F073CFE0
:101960001092421110924111D0934011C0933F1137
:101970006ACF0E940D04681979098A099B09C61665
:10198000D706E806F90698F42196D0933A11C09349
:1019900039110E940D0460933B1170933C118093A8
:1019A0003D1190933E1190E080E00E9425058091CA
:1019B000391190913A118537910509F083CF109232
:1019C0003A11109239117ECFC130D10509F088C18A
:1019D0000E94BE070E940D04C0907B13D0907C1320
:1019E000E0907D13F0907E136C197D098E099F099C
:1019F000633371058105910558F147E752E190E0A5
:101A000080E0FA0130E020E08F30910509F458C100
:101A100060897189718360832F5F3F4F32962830D0
:101A2000310591F70196405F5F4F8031910549F78D
:101A30000E9483080E940D0460937B1370937C13B3
:101A400080937D1390937E1390E080E00E942505A3
:101A50000E940D04C0907713D0907813E090791312
:101A6000F0907A139B01AC012C193D094E095F09D6
:101A700069017A0186E30E94B303092E000CAA0BC8
:101A8000BB0B8C159D05AE05BF0508F084C047E66D
:101A900052E182E190E0FA0130E020E0009709F4A1
:101AA00017C1DF0150976D917C91718360832F5F27
:101AB0003F4F32962830310589F70197405151093F
:101AC0008F3F980741F7E7E7F1E181919191019705
:101AD00021F086859785019711F4D0E0C0E041E1BF
:101AE000E738F40791F7C130D10509F042C00E94F0
:101AF000DF0EA30192010E94370F6B017C0152E0BF
:101B0000C50ED11CE11CF11CF601EE0FFF1FE95BB5
:101B1000FE4ED183C0834B015C01EFEF8E1A9E0A0B
:101B2000AE0ABE0AF4013896EE0FFF1FE95BFE4EC7
:101B3000D183C083F6013896EE0FFF1FE95BFE4E9E
:101B4000D183C0836D5F7F4F8F4F9F4F685F7F4F03
:101B5000660F771F695B7E4EFB01D183C083F0E186
:101B6000CF0ED11CF601EE0FFF1FE95BFE4ED183B5
:101B7000C0830E9483080E944E070E940D04609358
:101B80007713709378138093791390937A1390E07E
:101B900080E00E9425050E94140688E10E942B0324
:101BA00090930F0380930E038AE10E942B0390937E
:101BB0000D0380930C0389E10E942B0390930B0388
:101BC00080930A03892BA9F4C0910803D0910903DB
:101BD000C130D10571F48BE091E10E944007E091A2
:101BE0000603F0910703EE0FFF1FE759FC4ED18368
:101BF000C08380910E0390910F03892B01F5809192
:101C00000403909105030197D1F483E191E10E94CF
:101C100040078091060390910703181619064CF4AB
:101C2000019790930703809306030E9495040E94F6
:101C30004E0790E080E00E9425050E9414068091E6
:101C40000C0390910D03892B01F580910203909173
:101C500003030197D1F48BE191E10E944007809149
:101C6000060390910703853091054CF401969093FB
:101C70000703809306030E9495040E944E0790E09C
:101C800080E00E9425050E94140680910E03909129
:101C90000F03909305038093040380910C039091AC
:101CA0000D03909303038093020380910A039091A4
:101CB0000B0390930903809308030E9493027BCD4A
:101CC000D901AA0FBB1FA959BC4E1D921C92A4CECC
:101CD000D901AA0FBB1FA95BBE4E1D921C92E7CE75
:101CE000C330D105D9F40E940D04C0907F13D09069
:101CF0008013E0908113F09082136C197D098E0996
:101D00009F09693873418105910528F060E08BE1F6
:101D10000E945403D2CF0E94EB05CFCF229769F6E1
:101D20000E94EB0516CE8F929F92AF92BF92CF92F8
:101D3000DF92EF92FF92CF93DF93EC01688179817C
:101D40008A819B81611571058105910521F464E209
:101D500079ED8BE597E02DE133EF41E050E00E9413
:101D6000370F49015A019B01AC01A7EAB1E40E9477
:101D7000560F6B017C01ACEEB4EFA50194010E94FB
:101D8000640FC60ED71EE81EF91EF7FE06C081E0DE
:101D9000C81AD108E10880E8F80AC882D982EA8224
:101DA000FB82C701B6019F77DF91CF91FF90EF9043
:101DB000DF90CF90BF90AF909F908F9008958F92BB
:101DC0009F92AF92BF92CF92DF92EF92FF9260917B
:101DD0001003709111038091120390911303611508
:101DE00071058105910521F464E279ED8BE597E0B9
:101DF0002DE133EF41E050E00E94370F49015A01D5
:101E00009B01AC01A7EAB1E40E94560F6B017C0173
:101E1000ACEEB4EFA50194010E94640FC60ED71E6C
:101E2000E81EF91EF7FE06C081E0C81AD108E108D5
:101E300080E8F80AC0921003D0921103E0921203D6
:101E4000F0921303C701B6019F77FF90EF90DF90E8
:101E5000CF90BF90AF909F908F90089560931003A4
:101E60007093110380931203909313030895052E2A
:101E700097FB1EF400940E944E0F57FD07D00E945E
:101E8000690F07FC03D04EF40C944E0F509540950B
:101E9000309521953F4F4F4F5F4F08959095809516
:101EA000709561957F4F8F4F9F4F08950E948B0FC4
:101EB000A59F900DB49F900DA49F800D911D11249E
:101EC0000895B7FF0C94560F0E94560F821B930B78
:101ED0000895A1E21A2EAA1BBB1BFD010DC0AA1F6B
:101EE000BB1FEE1FFF1FA217B307E407F50720F083
:101EF000A21BB30BE40BF50B661F771F881F991FFE
:101F00001A9469F760957095809590959B01AC0146
:101F1000BD01CF010895A29FB001B39FC001A39F4F
:101F2000700D811D1124911DB29F700D811D112412
:101F3000911D089597FB072E16F4009407D077FDA6
:101F400009D00E94B60F07FC05D03EF4909581950C
:101F50009F4F0895709561957F4F0895EE0FFF1F75
:101F6000881F8BBF0790F691E02D1994AA1BBB1B0D
:101F700051E107C0AA1FBB1FA617B70710F0A61B89
:101F8000B70B881F991F5A95A9F780959095BC01AA
:081F9000CD010895F894FFCF84
:101F98000100000000000000000000000000000038
:101FA8000000000000000000000000000000000029
:101FB8000000000000000000000000000000000019
:101FC8000000000000000000000000000000000009
:101FD80000000000000000000000000000000000F9
:101FE80000000000000000000000000000000000E9
:101FF80000000000000000000000000000000000D9
:1020080000000000000000000000000000000000C8
:1020180000000000000000000000000000000000B8
:1020280000000000000000000000000000000000A8
:102038000000000000000000000000000000000098
:102048000000000000000000000000000000000088
:102058000000000000000000000000000000000078
:102068000000000000000000000000000000000068
:102078000000000000000000010000000000000057
:102088000000000000000100010001000000000045
:102098000000010001000200010001000100010030
:1020A8000100000000000000000001000000000026
:1020B8000000000000000000000000000100000017
:1020C8000000000000000000000000000000010007
:1020D80000000000000000000000000000000100F7
:1020E80000000000000000000000000001000000E7
:1020F80000000000000000000000010000000000D7
:1021080000000000000000000000000000000000C7
:1021180000000000000001000100010001000100B2
:1021280001000000000000000000010000000000A5
:102138000100000000000000000001000000000095
:102148000100000000000000000000000100010084
:102158000000000000000000000000000000000077
:102168000000000000000100010001000100010062
:102178000100000000000000000001000000000055
:102188000100000000000000010001000000000044
:102198000100000000000100000000000100010033
:1021A8000000000000000000000000000000000027
:1021B8000000000000000100010000000000000015
:1021C8000000000000000000000001000100000005
:1021D80000000000000000000000010000000100F5
:1021E80001000000000000000000010001000000E4
:1021F80000000000000001000100000000000000D5
:1022080000000000000000000000000000000000C6
:1022180000000000000000000100010001000100B2
:1022280000000000000001000000000000000000A5
:102238000100000000000100000000000000000094
:102248000100000000000100000000000000000084
:102258000100000000000100000000000000000074
:102268000100000000000000000000000000000065
:102278000000000000000100000000000100000054
:102288000000000000000100000000000000010044
:102298000000000000000100010001000100010031
:1022A8000100000000000100000000000000000024
:1022B8000000000000000000000000000000000016
:1022C8000000000000000000000001000100000004
:1022D80000000000000000000000010001000000F4
:1022E80000000000000000000000010001000000E4
:1022F80000000000000000000000000000000000D6
:1023080000000000000000000100010001000100C1
:1023180000000000000001000000000000000000B4
:1023280001000000000001000000010001000000A1
:102338000100000000000100000000000100000092
:102348000100000000000000010001000000000082
:102358000000000000000000000000000000000075
:102368000000000000000100010001000100010060
:102378000100000000000000000001000000000053
:102388000100000000000000010001000000000042
:102398000100000000000100000000000100010031
:1023A8000000000000000000000000000000000025
:1023B8000000000000000000010001000100010011
:1023C8000100000000000100000000000000000003
:1023D80000000000000001000000000000000000F4
:1023E80000000000000001000000000000000000E4
:1023F80000000000000000000100010001000100D1
:1024080001000000000000000000000000000000C3
:1024180000000000000001000100010001000100AF
:1024280001000000000000000000010000000000A2
:102438000100000000000000000001000000000092
:102448000100000000000000000000000100010081
:102458000000000000000000000000000000000074
:102468000000000000000000010001000100010060
:102478000000000000000100000000000000000053
:102488000100000000000100000000000000000042
:102498000100000000000100000000000000000032
:1024A800010000000000000001000100010001001F
:1024B8000000000000000000000000000000000014
:1024C80000000000000001000100010001000100FF
:1024D80001000000000001000000000000000000F2
:1024E80001000000000001000000000000000000E2
:1024F80001000000000001000100010001000100CE
:1025080001000000000000000000000000000000C2
:1025180000000000000001000100000000000100B0
:1025280000000000000001000000010000000000A1
:102538000100000000000100000000000100000090
:102548000100000000000100000000000000010080
:102558000000000000000000000000000000000073
:102568000000000000000000000001000100000061
:102578000000000000000000000001000100000051
:102588000000000000000000000001000100000041
:102598000000000000000000000000000000000033
:1025A8000000000000000100000000000000010021
:1025B8000000000000000100000000000100000011
:1025C8000100000000000100000000000100000000
:1025D80001000000000000000100010000000000F0
:1025E80001000000000000000000000000000000E2
:1025F80000000000000001000100010001000100CE
:1026080001000000000001000000000001000000BF
:1026180001000000000001000000000001000000AF
:10262800010000000000010000000000010000009F
:102638000100000000000100000000000000000090
:102648000100000000000000000000000000000081
:10265800000000000000000001000100010001006E
:102668000000000000000100000000000000000061
:102678000100000000000100000000000000000050
:102688000100000000000100000000000000000040
:102698000100000000000100000000000000000030
:1026A8000100000000000000000000000000000021
:1026B800000000000000000001000100010001000E
:1026C8000000000000000100000000000000000001
:1026D80001000000000001000000000000000000F0
:1026E80001000000000001000000000000000000E0
:1026F80001000000000001000000000000000000D0
:1027080001000000000000000000000000000000C0
:1027180000000000000000000000000000000000B1
:1027280000000000000000000000000000000000A1
:10273800000000000000010001000000000000008F
:10274800000000000000000000000100010000007F
:10275800000000000000000000000100000001006F
:10276800010000000000000000000100010000005E
:10277800000000000000010001000000000000004F
:102788000000000000000000000000000000000041
:102798000000000000000000000000000000000031
:1027A8000000000000000000000000000000000021
:1027B8000000000000000000000001000000000010
:1027C8000000000000000000000000000100000000
:1027D80000000000000000000000000000000100F0
:1027E80000000000000000000000000000000100E0
:1027F80000000000000000000000000001000000D0
:1028080000000000000000000000010000000000BF
:1028180000000000000000000000000000000000B0
:1028280000000000000000000000000000000000A0
:102838000000000000000000000000000000000090
:102848000000000000000000000000000000000080
:102858000000000000000000000000000000000070
:102868000000000000000000000000000000000060
:102878000000000000000000000000000000000050
:102888000000000000000000000000000000000040
:102898000000000000000000000000000000000030
:1028A8000000000000000000000000000000000020
:1028B8000000000000000000000000000000000010
:1028C8000000000000000000000000000000000000
:1028D80000000000000000000000000000000000F0
:1028E80000000000000000000100010001000100DC
:1028F80000000000000001000100000000000100CD
:1029080001000000000000000000000000000100BD
:1029180001000000000000000000010001000100AB
:10292800000000000000000000000100010000009D
:10293800000000000000000000000000000000008F
:10294800000000000000000000000100010000007D
:10295800000000000000000000000000000000006F
:10296800000000000000000001000100010001005B
:10297800000000000000010001000000000001004C
:10298800010000000000010001000000000001003B
:10299800010000000000000001000100010001002A
:1029A800010000000000000000000000000001001D
:1029B800010000000000010001000000000001000B
:1029C80001000000000000000100010001000100FA
:1029D80000000000000000000000000000000000EF
:1029E80000000000000000000100010001000100DB
:1029F80000000000000001000100000000000100CC
:102A080001000000000001000100000000000100BA
:102A180001000000000000000100010001000100A9
:102A2800000000000000010001000000000001009B
:102A3800010000000000010001000000000001008A
:102A48000100000000000000010001000100010079
:102A5800000000000000000000000000000000006E
:102A68000000000000000100010001000100010059
:102A7800010000000000000000000000000001004C
:102A8800010000000000000000000000000001003C
:102A9800010000000000000000000000010001002B
:102AA800000000000000000000000100010000001C
:102AB800000000000000000000000100010000000C
:102AC80000000000000000000000010001000000FC
:102AD80000000000000000000000000000000000EE
:102AE80000000000000000000100010001000100DA
:102AF80000000000000001000100000000000100CB
:102B080001000000000001000100000000000000BA
:102B180000000000000001000100010001000100A8
:102B2800000000000000010001000000000001009A
:102B38000100000000000100010000000000010089
:102B48000100000000000000010001000100010078
:102B5800000000000000000000000000000000006D
:102B68000000000000000100010001000100010058
:102B7800010000000000010001000000000000004A
:102B8800000000000000010001000000000000003B
:102B98000000000000000100010001000100010028
:102BA800000000000000000000000000000001001C
:102BB8000100000000000100010000000000010009
:102BC80001000000000000000100010001000100F8
:102BD80000000000000000000000000000000000ED
:102BE80000000000000000000100000000000000DC
:102BF80000000000000001000100000000000000CB
:102C080000000000000001000100000001000100B8
:102C180000000000000001000100000001000100A8
:102C28000000000000000100010001000100010097
:102C38000100000000000000000000000100010089
:102C4800000000000000000000000000010001007A
:102C5800000000000000000000000000000000006C
:102C68000000000000000000010001000100010058
:102C78000000000000000100010000000000010049
:102C8800010000000000000000000000000001003A
:102C98000100000000000000000000000100010029
:102CA800000000000000000000000000000001001B
:102CB8000100000000000100010000000000010008
:102CC80001000000000000000100010001000100F7
:102CD80000000000000000000000000000000000EC
:102CE80000000000000000000100010001000100D8
:102CF80000000000000001000100000000000100C9
:102D080001000000000000000000000000000100B9
:102D180001000000000000000000000001000100A8
:102D28000000000000000000000001000100000099
:102D38000000000000000000010001000000000089
:102D48000000000000000100010001000100010076
:102D5800010000000000000000000000000000006A
:102D6800000000000000000000000000010000005A
:102D78000000000000000000000001000100000049
:102D88000000000000000000010001000100000038
:102D98000000000000000000000001000100000029
:102DA8000000000000000000000001000100000019
:102DB8000000000000000000000001000100000009
:102DC80000000000000000000100010001000100F7
:102DD80000000000000000000000000000000000EB
:102DE80000000000000000000100010001000100D7
:102DF80000000000000001000100000000000100C8
:102E080001000000000001000100000000000100B6
:102E180001000000000001000100000001000100A5
:102E28000100000000000100010001000000010095
:102E38000100000000000100010000000000010086
:102E48000100000000000000010001000100010075
:102E5800000000000000000000000000000000006A
:102E6800000000000000000026029001BD0173026E
:102E7800EE01CC01E0010D0A0047414D45204F56B7
:102E88004552004A7565676F20656D70657A6164A3
:102E98006F0050756E74656F3A20004469737061F5
:102EA800726F004465726563686100497A7175697B
:062EB80065726461000078
:00000001FF
